:1000000000800020BD01000041160000F91500002D
:10001000F9150000F9150000F9150000F9150000A8
:10002000F9150000F9150000F9150000411600004F
:1000300041160000F9150000D5290000D92900005B
:100040004116000041160000411600004116000054
:100050004116000041160000411600004116000044
:100060004116000041160000411600004116000034
:100070004116000041160000411600004116000024
:100080004116000041160000411600004116000014
:100090004116000041160000411600004116000004
:1000A00041160000411600004116000041160000F4
:1000B00041160000C5150000D1150000D51500003F
:1000C000E1150000E5150000E915000041160000EB
:1000D00041160000411600004116000041160000C4
:1000E00041160000411600004116000041160000B4
:1000F00041160000411600004116000041160000A4
:100100004116000041160000411600004116000093
:100110004116000041160000411600004116000083
:100120004116000041160000411600004116000073
:100130004116000041160000411600004116000063
:100140004116000041160000411600004116000053
:100150004116000041160000411600004116000043
:1001600041160000AD1A00004116000041160000C3
:100170004116000041160000411600004116000023
:100180004116000041160000411600004116000013
:100190004116000041160000411600004116000003
:1001A00041160000411600004116000041160000F3
:1001B000411600004116000041160000564B4CF25B
:1001C000205210B51A804DF628121A8000BF00BFC9
:1001D00001F03AFA514B4FF010621A60504A9A609F
:1001E000504ADA60504A136813F4807304D14F49BF
:1001F0000B604FF4A85313604D4B1A78110703D5C9
:100200001A7842F008021A704A4B4B492A221A7097
:100210004A4A4B4B8B4204D252F8040F43F8040B6A
:10022000F8E7484B484900228B4202D243F8042B9E
:10023000FAE74649464A002352F8230041F82300D2
:1002400001336F2BF8D1434B434A802103F8011B44
:100250009342FBD1414B3D4A1A60414B8A221A70AE
:10026000A3F5805324225A70A0221A709A7992071B
:10027000FCD59A79D406FCD43A4A937903F00C035E
:10028000082B384BF9D103221A7140225A719A79FE
:100290009006FCD5334A9179324B4906FBD5324A58
:1002A000324911600221516020221A709A7902F0BD
:1002B0000C020C2AFAD12E4B2E4A1A602E4B2F4AD2
:1002C0001A6000225A60072243F8042C2C4AC3F813
:1002D0000C2D62B601F0A0FA144B1B68DA0705D5A5
:1002E000284801F02DFA284B284A1A60284B1B7821
:1002F0005B0609D5244C254B22689A4204D121483B
:1003000001F01EFA0023236003F0D0FB01F0A2F9F4
:1003100002F0C2FBFEE700BF0E2005403080044023
:10032000823F04000100002B10D0034014D0034092
:1003300002D0074000E007406C90FF1F24470000F8
:100340002087FF1F6C90FF1FEC93FF1F0082FF1F91
:100350000000000000E400E05FE400E008ED00E0E1
:100360000050064000400640448004400000030165
:1003700004800440C010050014E000E0FF76010096
:100380000000202024B76C611CE00340A5C3945AF0
:1003900000F00740FFFFFFFFFFFFFFFFFFFFFFFF32
:1003A000FFFFFFFFFFFFFFFFFFFFFFFFFFFFFFFF5D
:1003B000FFFFFFFFFFFFFFFFFFFFFFFFFFFFFFFF4D
:1003C000FFFFFFFFFFFFFFFFFFFFFFFFFFFFFFFF3D
:1003D000FFFFFFFFFFFFFFFFFFFFFFFFFFFFFFFF2D
:1003E000FFFFFFFFFFFFFFFFFFFFFFFFFFFFFFFF1D
:1003F000FFFFFFFFFFFFFFFFFFFFFFFFFFFFFFFF0D
:10040000FFFFFFFFFFFFFFFFFFFFFFFFDEF9FFFF23
:1004100010B5054C237833B9044B13B10448AFF33E
:1004200000800123237010BD6C90FF1F00000000AE
:1004300028470000084B10B51BB108490848AFF326
:1004400000800848036803B910BD074B002BFBD0A0
:10045000BDE81040184700BF000000007090FF1F6B
:10046000284700006C90FF1F0000000070B584B0AA
:10047000002423460094224A2249234800F04AFDE2
:100480009DF80C30029443F0010364F341038DF8AE
:100490000C300424E2B202A901341B4800F000FD34
:1004A000102CF7D10C21194C19481A4D1A4E02F094
:1004B0006BF91A4802F098FA2078012101F058F9F6
:1004C0002878012101F054F92078012101F04AF93E
:1004D0003368002B11DB00240121287801F042F958
:1004E000012001F04BF90021287801F03BF9336835
:1004F000013403EB4303A342EEDA04B070BD00BF46
:100500007492FF1F20A10700D890FF1F2487FF1FB0
:100510009C4400002887FF1F2087FF1F7487FF1F50
:100520000F4A93794FF4207008216FF30003106095
:10053000D171937102F10F00D31D002103F8011F47
:100540008342FBD1074B0649B3F9003006489B00B4
:1005500010B41C129372D47210BC00F0D3BE00BF52
:10056000AC90FF1F8E90FF1FD890FF1F10B5124C4C
:10057000A37940F2892108226FF300032160E27120
:10058000A37104F10F01E31D002203F8012F8B4238
:10059000FBD10A4B186803F099F8094903F0EAF80F
:1005A000084902F0DFFF03F05BFA03496072064876
:1005B000BDE8104000F0A6BEAC90FF1FA490FF1F46
:1005C0000AD7534000004042D890FF1F0A4A93794F
:1005D00008216FF300034FF49C60D1719371106098
:1005E000D31D00210F3203F8011F9342FBD10249B2
:1005F000024800F087BE00BFAC90FF1FD890FF1FDD
:10060000F0B4094B09489A790226A02511244FF429
:10061000EA77DE711D725C726FF300021F6019468B
:10062000F0BC9A7100F06EBEAC90FF1FD890FF1F17
:10063000F8B57D4C7D48214600F05CFD236840F212
:100640002512934246D0B3F5937F40F0C680E6680A
:100650000025B4B210210122002392185B41013918
:10066000FBD159084FEA3200A94208BFA0422946EF
:100670002046C0F0BF8002F0FFFC0022002302F001
:100680007FFB02F041FF6A496A4B00B2421D1A60CB
:100690000880340C002510210122002392185B41B0
:1006A0000139FBD159084FEA3200A94208BFA042E4
:1006B0002946204680F0A880A01A65EB030102F0CD
:1006C000DBFC0023002202F05BFB02F01DFF5A4B13
:1006D0001880F8BDA56800272E0C102101220023E8
:1006E00092185B410139FBD159084FEA3200B942F7
:1006F00008BFB0423946304602D2B01A67EB030158
:1007000002F0BAFC46A3D3E9002302F0EBFC00227E
:10071000002302F035FB02F0F7FE484B0446186058
:10072000AEB2002710210122002392185B4101394B
:10073000FBD159084FEA3200B94208BFB0423946EE
:10074000304602D2B01A67EB030102F095FC34A3E5
:10075000D3E9002302F0C6FC0022002302F010FBC4
:1007600002F0D2FE0028B8BF404202F0AFFF344989
:10077000344E354D02F0FEFF03F04CF9A4F59672AD
:100780006423324C3249306003FB02F284FB0243A3
:100790001344D217C2EBA3130968642BA8BF6423C8
:1007A0004A4223EAE373632A2B6017DD294C03FBDB
:1007B00002F384FB0342DB17C3EB62130B444FF4D9
:1007C0007A622449244D254C02FB00F081FB001283
:1007D000C017C0EBE21028802360F8BDC1F101040E
:1007E0001F4A03FB04F382FB0342DB17C3EB221314
:1007F0000B44E4E7A01A65EB030102F03DFC002284
:10080000002302F0BDFA3CE702F036FC0023002290
:1008100002F0B6FA02F078FE074B1880F8BD00BF70
:10082000000000A09999B93F9490FF1FD890FF1F36
:100830008C90FF1FA490FF1FC490FF1FD090FF1F3C
:10084000CDCCCC3FBC90FF1F8890FF1F859176AC2C
:100850002087FF1F1F85EB518E90FF1FC090FF1F49
:10086000CBF08D2838B53D4C3D4D204602F0BCF80C
:1008700010213C4801F088FF3B4B2046B3F90010A3
:1008800002F002F90321284601F07EFF204602F023
:10089000ABF80D21354801F077FF354B2046B3F911
:1008A000001002F0F1F80321284601F06DFF204608
:1008B00002F09AF80F212F4801F066FF2E4B2046D8
:1008C000B3F9001002F0E0F80321284601F05CFFC4
:1008D000204602F089F80E21284801F055FF284BE8
:1008E0002046B3F9001002F0CFF80321254801F0AB
:1008F0004BFF204602F078F80E21234801F044FF18
:10090000224B2046196802F0BFF80121204801F06F
:100910003BFF204602F068F80E211E4801F034FF2C
:100920001D4B2046196802F0AFF801211B4801F069
:100930002BFF204602F058F80E21194801F024FF41
:10094000184B2046196802F09FF80121164801F063
:100950001BFF2046BDE8384002F046B87487FF1FF1
:10096000C0440000AC4400008C90FF1FC444000051
:10097000C490FF1FD44400009090FF1FE444000087
:100980008E90FF1FF4440000F8440000BC90FF1F4D
:10099000084500000C450000D090FF1F1C450000DA
:1009A000204500008890FF1F30450000204A214B61
:1009B00070B516681A687342632B2EDCC6F101030A
:1009C0001D4902FB03F381FB0312DB17C3EB221368
:1009D0001E441A4B32361878012100F0C3FE002E57
:1009E0000FDB174D00240121287800F0BBFE012009
:1009F000044400F0C3FE0021287800F0B3FEA642B4
:100A0000F1DA104B1048314600221A6002F03CF82F
:100A10000D48BDE8704001F0E7BF0C4903FB02F34D
:100A200081FB0312DB17C3EB62131E44D1E700BF47
:100A30002087FF1F8890FF1FCBF08D282487FF1F82
:100A40002887FF1FD490FF1F7487FF1F1F85EB515E
:100A50002DE9F041DFF89080204FD8F800203B6866
:100A60009A421FDC1CDA1E4B0121187800F07AFE36
:100A7000D8F800303E68F61A11D41A4C002501212E
:100A8000207800F06FFE0120054400F077FE002181
:100A9000207800F067FEAE42F1DAD8F800303B6013
:100AA000BDE8F0810E4B0021187800F05BFED8F80D
:100AB00000303E689E1BF2D40A4C002501212078AC
:100AC00000F050FE0120054400F058FE002120787F
:100AD00000F048FEAE42F1DADFE700BFD490FF1F1E
:100AE0002487FF1F2887FF1FC090FF1F10B584B009
:100AF00001E0FFF79DFD1E4800F0C6FA0028F8D17E
:100B00001C4C1D4923680193019B0A689B1A092B01
:100B100024D8236819490293029B0A689B1AB3F5EB
:100B2000FA7F11D2236816490393039B0A6815487C
:100B30009B1A834206D902F52F3202F548720A60E9
:100B4000FFF734FF04B010BD02F5FA720A60FFF738
:100B50007FFFFFF755FDFFF785FEE3E70A320A60E6
:100B6000FFF7DEFCFFF702FDFFF730FDD1E700BF26
:100B7000D890FF1F7C92FF1FCC90FF1FC890FF1FD3
:100B8000A890FF1F1FBF020030B40A4B0A4C1A681E
:100B90000A4984B00192019D1A68029202981B686A
:100BA0000393039A064B256008601A6004B030BCBA
:100BB000704700BF7C92FF1FC890FF1FA890FF1FC7
:100BC000CC90FF1F00207047704700BF30B40B4629
:100BD000054603C905EBC204043484E8030019790F
:100BE00011F0010F296812D11C68124810238431BA
:100BF00013FB0211A404204008602968803113FB14
:100C0000021230BC136823F4001313607047186895
:100C10008431102313FB021120F060400860296822
:100C2000803113FB021230BC136843F400131360CD
:100C3000704700BF0000FC1F70B4438882689BB2FD
:100C400002EB031304461E685D689A68DB68CB609C
:100C50008A600E604D606388A18801209BB20344C6
:100C600093FBF1F201FB12339BB2638070BC7047BF
:100C7000F8B5204C204A21790546034601F0FD01D4
:100C800002202A606FF30001002285F894011D27DD
:100C900020261020C5F8A020C5F8F870A5F89661A8
:100CA000A5F8980121712260114643F8B02F05F193
:100CB000F00243F8041F93424FF00004F9D1C5F845
:100CC0008440C5F88840C5F88C40C5F8904098220B
:100CD000214605F1FC0003F0D1F91F220F2385F80E
:100CE000FC40C5F80841C5F80021C5F80C3128467C
:100CF000F8BD00BF7492FF1F0040024038B5D0F825
:100D0000A03003B138BD0446B0F89801000101F0ED
:100D1000CBFED4F8B020C4F8A000AAB10023B4F8E8
:100D20009851B4F89611A4F89430C4F89C00A4F833
:100D30009630C4F8AC20A4F8A430A4F89850A4F8D5
:100D4000A810A4F8A63038BDB4F89601000101F04F
:100D5000ABFEC4F8B0000246D4F8A000DEE700BF46
:100D6000F8B52C4BB3FBF1F5052DB3FBF5F6A1EB74
:100D700006064BD900229E461746931CB5FBF3F49A
:100D8000192C02F1010203FB04F3F6D8BEFBF3F3C6
:100D9000CB1A002BB8BF5B42B3422EDB2FD0052C01
:100DA000EBD87B1CB5FBF3F5053D142D1CD8B6F52F
:100DB000967F19DC184A006805EB45055319515D0B
:100DC0005A789B7801F0070141F48001D20441F484
:100DD000804102F460121B040A4303F4E02313432E
:100DE00043EA07674760F8BD39210C4801F0CCFCA5
:100DF0000B48BDE8F84001F0F7BD1E4617460B2C26
:100E0000CDD9122C9CBF1E461746C8E701230027E8
:100E1000C8E700BF0024F4002C87FF1F3445000002
:100E20007487FF1F0F2930B404462DDC69BBD0F84E
:100E3000A030012084F8940123B3002210252368F8
:100E4000803315FB02330132196801F4001141F0BF
:100E50008061196094F89401C0F11003D2B2DBB242
:100E60009342ECD80F2B0DD810204FF00061226870
:100E7000803210FB03220133DBB2102B1160F6D15C
:100E800094F8940130BC70470F21D4F8A03084F856
:100E900094111BB11029D0D10023E5E70846F1E7F2
:100EA00090F89431C3F11003DBB29A4201D2FFF7FC
:100EB0008DBE704790F89431C3F11003DBB29A42B3
:100EC00020D2036810B41C68E4011CD41C6844F0F0
:100ED00080441C600468236843F0805323600468E6
:100EE0002368DB01FCD504F5086404EB8202116081
:100EF0000268136823F08053136002681368DB01F3
:100F0000FCD410BC704703F5086303EB820210BCED
:100F10001160F7E72DE9F0410546164698460C4664
:100F20009DF81870FFF7EAFE2A68524B9A4200F0CB
:100F30008F80514A4F49137843F0800313702B6818
:100F40008B427BD05A6822F400525A602A68136898
:100F500043F0804313602A68136823F00043136052
:100F60002A681368DB02FCD4136883F000731360F3
:100F70002B681A689701FCD41A68D001FCD51A684E
:100F800042F400321A6021462846FFF7E9FE2A683B
:100F9000136843F48033136095F89431102B18BF15
:100FA000002404D11DE00134E4B29C4219D222464F
:100FB00000212846FFF77EFF95F89431C3F1100316
:100FC000DBB2A342EFD9224631462846FFF7FEFDA9
:100FD00095F894310134C3F11003DBB2E4B29C42C2
:100FE000E5D32A68136823F0805313602B681A68CE
:100FF000D101FCD41A681201FCD495F8941128464A
:10100000FFF710FFD5F8F83003F1604303F56443B0
:1010100040221A70D5F8F82053099B0003F1604371
:1010200003F5614302F01F02012101FA02F21A6086
:101030002B684FF6FF729A62BDE8F081A2F5E732A5
:10104000A2F5E272136843F0100313602B6879E78E
:10105000B8F1010F06BF03F518334833074B4FF4BF
:101060000072012F1A600CBF054B064B4FF4007243
:101070001A605EE700400240005006403090044095
:101080004CA0044034900440D0F8F83030B45C09EF
:10109000A10001F1604101F5614101220968144D8F
:1010A00003F01F0302FA03F3194008BF002280F87F
:1010B000F42045F82430B0F8A430B0F8A6209BB254
:1010C00092B29B1A44BFB0F8A8209B1869B1D0F81F
:1010D000F8104A09920002F1604202F5614201F003
:1010E0001F01012000FA01F11160184630BC704761
:1010F00080E100E0F8B50446D0F8F8001A4F460940
:10110000B30003F1604303F5614301221D6800F061
:101110001F0002FA00F31D4214BF1546002584F893
:10112000F45047F82630B4F8A420B4F8A63092B2B0
:101130009BB29A4216D004F1A400FFF77DFD94F80B
:10114000F45075B1D4F8F82053099B0003F16043C3
:1011500003F56143012102F01F0201FA02F21A6055
:10116000F8BDF8BD0020ECE780E100E070B48B79B9
:1011700013F0010F036828D00C681025843315FB89
:10118000023324F0604412FB05F21C6003688C6893
:10119000883324BA9C500368CC688C3324BA9C50A2
:1011A0008B79DC071DD513F0020FCB7901684FEA6C
:1011B000034303F4702301F1800114BF43F047633C
:1011C00043F046638B5070BC70470D680E4C102680
:1011D000843316FB0233AD042C4012FB06F21C6074
:1011E000D4E713F0020FCB7901684FEA034303F40D
:1011F000702301F1800114BF43F0416343F0406369
:101200008B5070BC704700BF0000FC1F0368F0B536
:101210008033102717FB02338C791D688D80C5F34E
:101220004056C5F30343C5F3005E66F30004CB717B
:1012300006686EF3410404F0FB046FF3C70417FB68
:1012400002668C7191F806E0D6F884401EF0010F1A
:1012500024F060440C60C5F3036504BFA40C0C606B
:10126000062D25D0D6F88840CC72260A250C042BF2
:101270004FEA14648E724D720C7210D900688C3073
:1012800017FB0202072B1268CA734FEA12244FEAB7
:1012900012404FEA12628C7348730A7307D80733FF
:1012A0000B4400220F3103F8012F8B42FBD1F0BD1C
:1012B0008C7944F004048C71D4E700BF0B88488813
:1012C000F0B59BB28D88013393FBF5F405FB143325
:1012D0009BB280B2834213D00888D2F800C0D2F803
:1012E00004E09768D6688D6882B21201AC1845F8A0
:1012F00002C0C4F804E0A760E66001200B80F0BDE6
:101300000020F0BDF8B50446D0F8F8002B4E450992
:10131000AB0003F1604303F5614301221F6800F055
:101320001F0002FA00F31F4208BF002284F8F420D5
:1013300046F82530B4F89430B4F896209BB292B2B7
:101340009A4218D00A46204604F19401FFF7B6FFEE
:1013500094F8F43073B1D4F8F82053099B0003F1EA
:10136000604303F56143012102F01F0201FA02F21A
:101370001A60F8BDF8BD94F89421C2F11002D2B2FF
:101380000F2ADFD802F12D0504EB8505130104E0D7
:101390000132102A03F11003D4D055F8040B0028B1
:1013A000F6D120688030C058C0F303600828EFD120
:1013B0002046D2B2FFF7DAFE0120C9E780E100E063
:1013C0002DE9F04F026889B0136B039383460546FD
:1013D00000F1B40A0024994608E0022B3AD0013407
:1013E000102C05F108050AF1040A2ED029FA04F39D
:1013F000D907F4D5270102F18003DB59C3F3036356
:10140000062B27D0082BE8D1DAF8000008B90BF139
:1014100094000188438889B29BB2994200F09D8074
:101420000188438889B29BB29942D8D004A9FFF7BA
:1014300003FC002840F0B280DBF800200134102CBF
:1014400005F108050AF1040AD0D1039B136309B022
:10145000BDE8F08F04A9E2B25846FFF7D7FE9BF82B
:10146000FC306BB1D5F814319DF8162001335207CA
:10147000C5F8143104D5D5F818310133C5F8183141
:10148000002201238DE88400A34002950BF1800621
:101490000BF190081D4656F8040F28B1426812EA75
:1014A00005032BD1002A3FDBB045F4D1009B019FFF
:1014B000029D002B3FD09BF8FC3083B1BBF8A430D9
:1014C000BBF8A6109AB28BB2D31A44BFBBF8A820BF
:1014D0009B18DBF804219A4238BFCBF804310BEBA0
:1014E000C4031B7ADB0714D5DBF800306A68843349
:1014F00022F06042DA51DBF8002070E703681F68D1
:101500002D4B9F4245D10020009B1843C3B200934E
:10151000CAE76968DBF80030284A890484330A4046
:10152000DA51DBF800205AE702681768224A97422E
:101530003CD11846E8E704AA0BF1A4015846FFF78E
:10154000BDFE0028B7D19BF8FC30002BC7D0DBF8DC
:1015500008310133CBF80831B0E70127A74047F045
:1015600000470BF180060BF1900856F8040F10B1FC
:1015700043681F4204D1B045F7D1DBF800205DE796
:1015800003680F4A5B689342F5D0002221469847D2
:10159000F1E70023224604A9B847B5E7E2B204A95F
:1015A0005846FFF7E3FDDBF8002018E74FF0FF3265
:1015B00004A9B847A8E700BFC50B00000000FC1F46
:1015C000C90B00000148FFF7FBBE00BFD890FF1F0A
:1015D000704700BF014B1B681B6A7047D890FF1F04
:1015E000704700BF704700BF704700BF002101482F
:1015F000FFF73EBBD890FF1F08B5104C08E02368EA
:1016000059050DD423681A050FD42368DB0411D4BF
:1016100023685803F3D500F049FA23685905F1D53A
:1016200000F00EF823681A05EFD500F009F82368DA
:10163000DB04EDD500F004F8EAE700BF3480044095
:1016400008B5FFF7D9FF00BF014B10221A80704781
:1016500000200540704700BF094908B50B6830B14C
:101660006A461844A2F58052904202D20860184699
:1016700008BD02F015FA0C2303604FF0FF3008BDDF
:101680006C87FF1F10B40F4B53F8302092F8804244
:101690002CB1012369B182F8803010BC704703EB94
:1016A000C0035B681A6841B922F002021A6010BCDC
:1016B000704782F8003110BC704742F003021A6094
:1016C00010BC7047704500001C4A02EBC0030129A2
:1016D0005B6811D004291BD052F83000002280F83A
:1016E000802229B1022920D0032922D01A60704714
:1016F0004FF480721A60704752F830004FF4A272B3
:1017000080F880121A601A6822F020021A6070476E
:1017100052F830104FF4A272012081F880021A6052
:101720001A6842F020021A60704740F203121A60F1
:1017300070474FF481721A60704700BF7045000017
:1017400030B4054B054D064C002210211A602A606A
:101750002060196030BC704714D0034004D00340AF
:1017600000D00340212801D8FFF78CBF704700BF8D
:10177000212801D8FFF7A8BF704700BF2DE9F84323
:10178000054672B6204F214B214A1B683C681268FF
:1017900062B6520102D5322B88BF013495B3C3F52E
:1017A000BB331C4EDFF86490DFF86480FF334FF4E6
:1017B0007A72A6FB031302FB04F404EB931472B6D3
:1017C000D9F800103A68D8F800E062B6C1F5BB332A
:1017D000FF33A6FB03031EF0806FC4EB93134FF49B
:1017E0007A7002D0322988BF013200FB0233B3F590
:1017F0007A7F04D3013D05D004F57A74DFE701F068
:1018000069F9DCE7BDE8F8837C92FF1F18E000E08F
:1018100004ED00E0ABAAAAAAF8B52D4B2D49DFF8DC
:10182000D0E0DFF8D0C02C4E2C4D2D4C2D4A2E4F41
:101830004FF4000018604FF0807018604FF0007097
:1018400018604FF0806018604FF000601860002052
:10185000086028234BF6FF71CCF80010CEF800305A
:10186000336013602B6023603B60B3629362092294
:1018700045F8242CC4F8D80F05F57F65C7F8D41FA8
:1018800007F5FF2707F5FA67C6F8F83F2B6006F55E
:10189000FF26C4F8D42F05F5FD2504F5FF24386094
:1018A00006F2F4761148316005F5FF6504F5FD6434
:1018B0002B602360026001F083F91920FFF75EFFBF
:1018C00000F05AFE40F21310BDE8F840FFF756BF93
:1018D00008E100E0048003401480034024800340BA
:1018E0002C8003401C8003403480034000800B4068
:1018F0000C80034008800340431E032B14D872B6AB
:101900000A4951F8230068B170B4094C058834F8CD
:101910001320466841F82360521B24F8132062B656
:1019200070BC704762B6704700207047D892FF1FA6
:10193000D493FF1F013803280BD872B6074B53F816
:10194000203043B100205B680130002BFBD162B630
:101950007047002070471846F9E700BF2C93FF1F1F
:1019600030B472B62B4A13781D0706D52A4B196A74
:10197000002936D0996A002941D053781C0706D532
:10198000254B196C00293ED0996C002939D09378E9
:10199000190705D5204B196E002936D0996E89B1EB
:1019A000D3781B0707D51C4BD3F880207AB3D3F824
:1019B000882011213AB162B6184B00221A7030BC4F
:1019C00000F056BE0D21154C154D227843F83150CC
:1019D00003EBC1030830013A5860227062B630BC94
:1019E000704704220D4C0F4D217843F8325003EB21
:1019F000C20308304A1E5860227062B6EFE7052124
:101A0000E1E70921DFE70822ECE70C22EAE71022F0
:101A1000E8E700BFAC4600000080FF1F5593FF1FA2
:101A2000C800400088004000431E032B1DD81B4AFD
:101A3000400140F0100030B4104472B6184CE25C23
:101A4000032A1BD8DFE802F00212151703220D88C3
:101A5000E25410F0080F14BFC823882343EA05435B
:101A600008310360416062B630BC70470830022222
:101A7000EDE70522EBE708300422E8E7094A52F8CF
:101A8000230038B1084A52F82300416042F823107D
:101A900062B6E9E742F82310034AF7E70080FF1F28
:101AA0006493FF1F2C93FF1F3C93FF1F2DE9F04F02
:101AB000DFF818B3DFF818A387B044E0AE4F4FEA61
:101AC000930807EBC809013ED9F8042003F0080386
:101AD000F6B2A2F1080003F0FF04002B40F00481ED
:101AE00057F838301B0C99B222F8081C002B00F074
:101AF000F280A24B22F8064C42F8044C53F8262000
:101B0000002A00F06E819E4D55F8263058609D4C9D
:101B100045F8260034F81630194424F8161000F061
:101B200087FD002800F05681974A984B19F0080F5E
:101B300000F1080018BF1346C9F8040047F8383010
:101B400008238BF800309BF80040E4B261071BD5F6
:101B50008F4B1B78ABB18F490A7802F0FF032AB193
:101B6000013BDBB20B70002B00F0EF848A490A784E
:101B700002F0FF032AB1013BDBB20B70002B00F037
:101B8000F78004238BF8003004F0080303F0FF0211
:101B9000002B00F0D6809AF80030DBB21E098DD100
:101BA0009C08DFF8D49159F8342009EBC401C2F342
:101BB0008302013A49680C2A7ED8DFE802F081816D
:101BC0007D7D7D7D7D7D477D7D7D07000868734D32
:101BD0004A68734F734E286081B240F281606A4B4D
:101BE0006A604FF0010E0022814249F834303A60B9
:101BF000C9F81020C9F8182086F800E05E4C00F201
:101C0000F480B1F5D06F80F07883B1F5817F00F07A
:101C1000628300F28782802900F0EC82822940F002
:101C20001E83A98801F07F01042900F218835E4811
:101C30005E4C89000844227062700278930740F17C
:101C4000798384F800E04FF0020ED8E2544F3A68EE
:101C500042B3574B534E5749188834780D78402873
:101C6000864645F0020828BF4FF0400E002C84F055
:101C700001043470CEEB00000CBF8824C82409EBAB
:101C8000C80680B285F0010544EA0E4472601880EF
:101C900049F8384072440D7018B9BEF1400F18BFB2
:101CA00000223A603D4B1A88B2F5A06F04D10021A2
:101CB0009A785970404B1A70404A012313703FE7DD
:101CC000364A158842F22100854200F0FF812E4AF3
:101CD00049F83420F0E72C4A2C4B19F0080F18BFB4
:101CE000134647F838302BE700F0C2FC344A354938
:101CF00052F82630002B00F0B68158688C5D42F80F
:101D0000260003F10802C9F80420032C05D8DFE8F7
:101D100004F0120F150204228A551A8819F0080FD0
:101D20000CBF8823C82343EA024347F8383007E74B
:101D300002228A55F1E703228A55EEE705228A55E9
:101D4000EBE7E00700F11A82210600F14982A207C1
:101D500006D51D4A1D4913780220DBB213700870A6
:101D6000E30602D5194B10221A7007B0BDE8F08FB8
:101D700000F0EAFD05E700BF0080FF1FD892FF1FBB
:101D80008492FF1FD493FF1FC800400088004000CA
:101D90006093FF1FE992FF1F6893FF1F4C93FF1F83
:101DA0008092FF1FE892FF1FC02007405893FF1F3B
:101DB0009492FF1F5493FF1F9820074094200740E0
:101DC0002C93FF1F6493FF1F88200740802007404B
:101DD00090200740AB4A47F838001378013313705E
:101DE000AEE643F82600A84D91E642F2210081427A
:101DF00000F0358100F2AF81B1F5086F00F01B8271
:101E0000B1F5106F40F02B82226AA049A8780870C3
:101E1000120600F14583D9F828209D49130600F1E8
:101E20003A83D9F830209A49150600F12F83D9F862
:101E300038209749140600F12483D9F840209449AA
:101E4000100600F11983D9F848209149120600F1D3
:101E50000E83D9F850208E49130600F10383D9F878
:101E600058208B49150600F1F882D9F8602088497E
:101E7000140600F12983D9F868208549100600F17D
:101E80001E83D9F870208249120600F11383D9F815
:101E900078207F49130600F10883D9F880207C4917
:101EA000150600F11C83D9F888207949140600F141
:101EB0001083D9F890207649100600F1C882D9F82D
:101EC00098207349120600F1BC827248724A734925
:101ED000019073486C4D734C04970023059602954E
:101EE000804617460E461D460394386828B144685C
:101EF00000F0BEFB2046002CF9D100233B60029B82
:101F000030681A46002342F8253028B1446800F0B2
:101F1000AFFB2046002CF9D100223260019A98F8DC
:101F200000301146002241F8042B039A0191023B34
:101F30004FF0000122F81510032B09D8DFE813F049
:101F40004B0104004B0104004FF0010388F80030FE
:101F50000135042D07F1040706F1040608F1010814
:101F6000C3D1514C514B2278464D049F059E002110
:101F700029701A70130700F14F8262784C49DFF81C
:101F800010810A7010074FF00001C9F83010C9F82D
:101F9000381000F12B824749A2780A700021C9F855
:101FA0005010C9F858101107DFF8E48000F1DC8107
:101FB000E2784149364C0A7000211207C9F87010C6
:101FC000C9F8781000F1B98133780193002183F0CA
:101FD0000102C9F89010C9F89810002002908046BC
:101FE0008446044635490D7845F0020E09EBCE03D0
:101FF0000393019B002B039B5C600CBF8824C824C7
:1020000044EA080385F0010449F83E3032700C7050
:10201000DFF87CE02A4BDFF8A480002840F026811E
:10202000BCF1400F1BD144F0020C09EBCC03029C25
:10203000DFF85CE05C60002A40F02E81020442F090
:1020400088029DF804304EF83C20044433700D7033
:102050002346402803D100201A4A3B6010801A4AC8
:102060000123137028E68B5D032B00F22D8101A262
:1020700052F823F0411B0000411B0000CB2100005F
:10208000D12100005593FF1F8492FF1F6093FF1F13
:102090000080FF1F3C93FF1FD892FF1F2C93FF1F50
:1020A0006493FF1FD493FF1FAC460000C420074079
:1020B000C8200740CC200740D02007405493FF1F82
:1020C000E892FF1F9492FF1F94200740928892B9D4
:1020D000B14A0D784878157050708D78C878957031
:1020E000D07010680D79157186284D7989795571F0
:1020F000917100F0A580A949A94E0A78307882F044
:102100000105002842F002020D700CBF8821C82191
:1021100049F8321009EBC20280F001000021307052
:102120005160D4E540F20232914240F08D80A9889E
:1021300001F07F01042900F292806A88002A40F0B1
:102140008E809848CDF804E089000844017841F079
:102150000201017041E742F2212081427BD1A9882E
:10216000002940F0E480904B904A9148AC781D687B
:102170001560CDF804E00A4604702EE78D4B8E48BA
:1021800086491A614FF0020E80F800E0854F0A7010
:102190008A49196099608A4E8A4D8B4C9A610D214B
:1021A0003970FF213170DFF840E229702270874DCD
:1021B000874A8EF800109F27012406F8047C5D6092
:1021C0000470DA6007B0BDE8F08F00238B55B7E4E8
:1021D00001238B55B4E44FF0000388F80030B7E6D4
:1021E0007049784B80220D2008701A70A2077FF585
:1021F000B7ADAEE5774C4FF0020E22706270EA8800
:10220000724580F0A38165490D78402A944645F0D7
:10221000020E28BF4FF0400C04EB0C0309EBCE007C
:102220000293012344604FEA0C48CCEB0200019377
:102230000022C824E4E6684A664C12782270DEE781
:10224000664A0F21117056E7B1F5A06F07D101233F
:1022500000220193C1E642F221329142F7D0514A65
:102260000F231370544A0123137025E540287FF68D
:10227000DAAE44F002040EEBC401029E4E60BAB125
:102280009DF80410564A19703346403888F80050BB
:1022900040334EF83420DFE69DF8043033700204FA
:1022A000029B0D7042F0C80203444EF83C20D0E679
:1022B0009DF804101970029B404A88F8005040387D
:1022C00040334EF83420C7E619F0080F0CBF022344
:1022D00003238B5534E4A98801F07F010429BED87B
:1022E0006A88002ABBD12F48CDF804E08900084451
:1022F000017821F0020101706FE63A4A5468002C1F
:10230000ADD06888B5F804E003E00C325468002CC6
:10231000A5D013888342F8D153887345F5D1000ABC
:1023200003280CBF94F800E0B2F808E067E7CDF8A6
:1023300004E052E64FF0020E61E700F079F9002860
:1023400000F0F18008301D4AC4F88400C4F88020F1
:1023500000F06EF9002800F0E0800830204AC9F84B
:102360008C00C9F888202FE600F062F9002800F000
:10237000E6800830114AC8F86400C8F8602000F010
:1023800057F9002800F0D5800830154AC9F86C00CC
:10239000C9F868200CE600BFDC93FF1F5493FF1FB1
:1023A000E892FF1FC02007407C92FF1FE493FF1FAD
:1023B0007893FF1F0080FF1F942007408800400093
:1023C0008820074080200740982007409892FF1FF0
:1023D000EC92FF1F5893FF1F6093FF1FE992FF1FAE
:1023E000C8004000B04600008C20074000F020F9F3
:1023F000002800F08C8008305D4AC8F84400C8F816
:10240000402000F015F900287BD00830594AC9F85F
:102410004C00C9F84820BEE500F00AF900286AD04F
:102420000830534AC9F82400C9F8202000F000F908
:1024300000285AD008304F4AC9F82C00C9F8282083
:102440009BE5D1F89C00083800F012F93DE5D1F881
:102450009400083800F00CF931E5C86D083800F038
:1024600007F902E5486D083800F002F9F7E4C86C96
:10247000083800F0FDF8ECE4486C083800F0F8F893
:10248000E1E4C86B083800F0F3F8D6E4486B08388C
:1024900000F0EEF8CBE4C86A083800F0E9F8C0E4D0
:1024A000606A083800F0E4F8B5E4C86F083800F056
:1024B000DFF8F2E4486F083800F0DAF8E7E4C86EB5
:1024C000083800F0D5F8DCE4486E083800F0D0F8A1
:1024D000D1E4D1F88C00083800F0CAF8E9E4D1F86A
:1024E0008400083800F0C4F8DDE42A78C9F8280030
:1024F00001322A7041E52A78C9F8200001322A7099
:1025000094E72A78C9F8480001322A7043E52A780E
:10251000C8F8400001322A7073E72A78C9F88800A9
:1025200001322A7050E52A78C4F8800001322A70FE
:102530000EE72A78C9F8680001322A7038E52A784F
:10254000C8F8600001322A7019E700BEBEF1400FE2
:10255000F44628BF4FF0400C04EB0C030293012318
:10256000CCEB0E004FEA0C48002201933AE500BF85
:1025700088004000C80040002DE9F843204C00F0DE
:10258000B5FB002204F1A00023461A605A6008330C
:1025900083424FF00001F8D11A4A1B4F13681B4DBC
:1025A0001B481C4EDFF87880DFF878C0DFF87890A1
:1025B000DFF878E043F480231360C4F307233B7013
:1025C000C4F307432B70240EFF2302F52832047056
:1025D000114D88F8003011488CF80030D432337037
:1025E000012389F8003070268EF800104FF4007433
:1025F000102107F8183C2E7004601170BDE8F883B4
:102600000080FF1F348004409C200740B02007401A
:10261000B42007401020074049E400E008E100E052
:102620008020074088200740942007400021074071
:1026300072B60D480268B2FA82F30B2B10DC4FF031
:102640000041D94022EA0102026062B6074803EB6A
:10265000C303DB00C2180021C1501046516070470F
:1026600062B60020704700BF7087FF1FBC83FF1F4A
:102670000D4B0E4AC31AA2FB03231B090B2B0CD8CC
:102680000B4A127852B972B60A484FF000410268FC
:1026900021FA03F31A43026062B67047064A1278C1
:1026A000002AF0D0FFF75CB9BC83FF1F398EE338F6
:1026B0005593FF1F7087FF1F6093FF1F38B50F4DA5
:1026C000286878B143880288C118013393420C7A94
:1026D00002D24380204638BDFFF7CAFF00232046C0
:1026E0002B6038BD064B1B782BB10320FFF704F994
:1026F00028600028E6D14FF0FF3038BD7493FF1FEB
:102700006093FF1F10B5094C206818B14388184426
:10271000007A10BD064B1B782BB10320FFF7ECF8B5
:1027200020600028F2D14FF0FF3010BD7493FF1FDE
:102730006093FF1F044B054A1B6890881BB11A88E1
:102740005B88D31A184470477493FF1FD493FF1FFC
:102750000B4B1B789BB110B50A4C206848B1FFF7B2
:1027600087FF002303202360FFF7C6F830B1FFF78F
:102770007FFF0320FFF7C0F80028F8D110BD704795
:102780006093FF1F7493FF1F2DE9F04FDFF8F8905F
:1027900083B0012289F80020019169B3DFF8EC8051
:1027A000364F019E8346D8F80000B0B3344D4488BC
:1027B000C4F14001B14228BF314604EB010E0022B2
:1027C0001FFA8EFE2A70761AA0F802E000F10802C5
:1027D00051B1013C224459441BF8014B02F8014F0E
:1027E0008B45F9D1B0F802E0BEF13F0F0BD8254A76
:1027F00005211170002ED6D10198002389F80030F0
:1028000003B0BDE8F08F4022028001460420FFF7AC
:102810000BF90022C8F80020E9E73A782AB3184DEE
:102820004AF2F9244FF0010A07E0013C16D02A7859
:10283000A2B900F04FF93A78BAB10420FFF77AF85C
:102840000728F2D889F800A0FFF7F2FEC8F80000C8
:102850000028ACD10C4B013C1870E8D101234FF09B
:10286000FF302B7003B0BDE8F08F00234FF0FF3036
:1028700089F8003003B0BDE8F08F00BF6093FF1F00
:102880007093FF1F6893FF1F6993FF1F6C93FF1FD7
:1028900000B583B002AB012103F8010D1846FFF724
:1028A00073FF03B05DF804FB38B50E4D0E4C28687D
:1028B0000123237028B1408800232370C0F1400019
:1028C00038BD0A4B1B7813B90020207038BD042096
:1028D000FFF730F80728F7D8FFF7AAFE286000288E
:1028E000E9D1F1E76C93FF1F6993FF1F6093FF1F0E
:1028F000F8B5114B1B788BB1104E114D3468012780
:102900002F7064B10F4A6388002717702146238017
:102910000420FFF789F8376000232B70F8BDFFF71C
:1029200087FE084B28B1014604201C70FFF77CF895
:10293000F2E71F70F0E700BF6093FF1F6C93FF1F6B
:102940006993FF1F6893FF1F38B50E4B1B7873B94F
:102950000D4C216861B103F0FF054B880B8004200A
:10296000FFF762F8256038BD084B01221A7038BDA8
:10297000FFF75EFE0028F7D00146BDE8384004208E
:10298000FFF752B86993FF1F6C93FF1F6893FF1FF7
:1029900070B5EFF3108272B60C4C206880B10C4E0B
:1029A00000254369236073B19D6102B962B6457722
:1029B00083689847EFF3108272B620680028F0D140
:1029C00002B962B670BD3360EFE700BF7C93FF1FB2
:1029D0008093FF1FFFF7DCBF024A136801331360C7
:1029E000704700BF7C92FF1F00B5064A036812883B
:1029F0005B6883B001A9ADF804200222984703B0B8
:102A00005DF804FB80460000F0B507468BB0002A55
:102A100033D0012A08BF0A2251B3212400E0F4B2C6
:102A2000B1FBF2F502FB1511C8B2092900F1300122
:102A300098BFC8B20AA988BF3730214488BFC0B246
:102A400001F8240C661E2946002DE8D133B1013C63
:102A5000E4B20AAB23442D2203F8242C3B6801AADC
:102A600011195B683846C4F1220298470BB0F0BDDB
:102A700030228DF825202124E8E70368C9B21B68BD
:102A800098470BB0F0BD00BF0029BABF49422D23C3
:102A900000230A22FFF7B8BF08B5FDF7E7FCFEF7F1
:102AA00025F800F017F8FAE701F028B8FFF750BE54
:102AB000FFF728BEFFF702BEFFF73CBEFFF718BFC7
:102AC000FFF7F2BE08461146FFF75EBE0846FFF765
:102AD000DFBE00BF2DE9F843314E337893B1314F5B
:102AE0003A787AB90122D9073A7036D49A0719D4BC
:102AF00000225B073A7005D52B4B1A6812B1EFF331
:102B000005820AB1BDE8F883EFF3108172B6186848
:102B100018B1264C2278002A2ED00029F2D162B6B4
:102B2000BDE8F883DFF8908098F80020002ADFD015
:102B3000DFF88890002405E0013498F80030E4B212
:102B4000A34212D959F824502B6828461B6998478C
:102B50000028F1D02B699847EEE7FFF7EBFDC8B9E5
:102B6000134B1B781BB93378C0E73378C0E7337851
:102B700003F0FE033370B9E745691D60012323703C
:102B80005DB1AA6101B962B60025457783689847AF
:102B90002570B7E700F0ECF8E2E7064B1D60F1E7BF
:102BA0008487FF1F8D93FF1F8893FF1F8C93FF1F48
:102BB0002A88FF1F8493FF1F9C93FF1F9093FF1F82
:102BC00030B42948294A2A4B2A4D6024E121047057
:102BD00011701B78284C082B30D00A2B2748284925
:102BE00037D00C2B0CBF35223D2212232A602360E4
:102BF00002600B60234B24491B78244ABBB101239C
:102C00000B601360224B23491B78234A012B26D9E2
:102C1000042B0FD9082B1ED9102B94BF8623872392
:102C20000B6013601D4B01221A7030BC70470B60A3
:102C30001360E7E784230B601360F3E700F58E2051
:102C40000F490830012213232A60236002600B60C1
:102C5000D0E73922F7E785230B601360E2E7802392
:102C60000B601360DEE700BF0040074001400740F3
:102C70008587FF1F08B003400CB0034008B00B402D
:102C80000CB00B408F93FF1F20B0034020B00B40CF
:102C90008687FF1F24B0034024B00B408E93FF1F94
:102CA000F0B44D1E2E46002400E00134B0FBF2F3D8
:102CB00002FB1300092800F130078ABF3730F8B251
:102CC000C0B206F8010F1846002BEED10A19537056
:102CD0004CB1107815F8016F28700133E01A834267
:102CE00002F80169F5DB0846F0BC704770B584B0A6
:102CF00072B6194B194D1A48702241260F248021B3
:102D00001A702E701A460470197013781B06FCD5C1
:102D1000144B186862B6144B144C984298BF00EBE1
:102D2000800001A998BF40000A22FFF7B9FF01A95E
:102D30002046002311F8012B01333AB10A2B20F869
:102D4000022FF7D11623237004B070BD5B00DBB2F5
:102D5000237004B070BD00BF0000024007000240B5
:102D600006000240080002407F9698001488FF1F6A
:102D7000704700BF81F0004102E000BF83F00043D4
:102D800030B54FEA41044FEA430594EA050F08BF06
:102D900090EA020F1FBF54EA000C55EA020C7FEACA
:102DA000645C7FEA655C00F0E2804FEA5454D4EB47
:102DB0005555B8BF6D420CDD2C4480EA020281EA11
:102DC000030382EA000083EA010180EA020281EA49
:102DD0000303362D88BF30BD11F0004F4FEA01319B
:102DE0004FF4801C4CEA113102D0404261EB4101AA
:102DF00013F0004F4FEA03334CEA133302D0524230
:102E000063EB430394EA050F00F0A780A4F10104EB
:102E1000D5F1200E0DDB02FA0EFC22FA05F2801825
:102E200041F1000103FA0EF2801843FA05F359410B
:102E30000EE0A5F120050EF1200E012A03FA0EFC8A
:102E400028BF4CF0020C43FA05F3C01851EBE371B4
:102E500001F0004507D54FF0000EDCF1000C7EEBD1
:102E600000006EEB0101B1F5801F1BD3B1F5001F0F
:102E70000CD349085FEA30004FEA3C0C04F101042E
:102E80004FEA445212F5800F80F09A80BCF1004F57
:102E900008BF5FEA500C50F1000041EB045141EAD9
:102EA000050130BD5FEA4C0C404141EB010111F4DA
:102EB000801FA4F10104E9D191F0000F04BF014685
:102EC0000020B1FA81F308BF2033A3F10B03B3F163
:102ED00020020CDA0C3208DD02F1140CC2F10C02F3
:102EE00001FA0CF021FA02F10CE002F11402D8BF51
:102EF000C2F1200C01FA02F120FA0CFCDCBF41EA1D
:102F00000C019040E41AA2BF01EB0451294330BDEB
:102F10006FEA04041F3C1CDA0C340EDC04F11404C8
:102F2000C4F1200220FA04F001FA02F340EA03009F
:102F300021FA04F345EA030130BDC4F10C04C4F1E5
:102F4000200220FA02F001FA04F340EA03002946C5
:102F500030BD21FA04F0294630BD94F0000F83F40F
:102F6000801306BF81F480110134013D4EE77FEAF2
:102F7000645C18BF7FEA655C29D094EA050F08BF3E
:102F800090EA020F05D054EA000C04BF194610461F
:102F900030BD91EA030F1EBF0021002030BD5FEA63
:102FA000545C05D14000494128BF41F0004130BD8B
:102FB00014F580043CBF01F5801130BD01F00045DF
:102FC00045F0FE4141F470014FF0000030BD7FEA52
:102FD000645C1ABF194610467FEA655C1CBF0B464D
:102FE000024650EA013406BF52EA033591EA030F64
:102FF00041F4002130BD00BF90F0000F04BF00215C
:10300000704730B54FF4806404F132044FF000058E
:103010004FF0000150E700BF90F0000F04BF002107
:10302000704730B54FF4806404F1320410F000456D
:1030300048BF40424FF000013EE700BF42004FEA68
:10304000E2014FEA31014FEA02701FBF12F07F43E5
:1030500093F07F4F81F06051704792F0000F14BFE2
:1030600093F07F4F704730B54FF4607401F0004526
:1030700021F0004120E700BF50EA010208BF70477D
:1030800030B54FF000050AE050EA010208BF704772
:1030900030B511F0004502D5404261EB41014FF4DB
:1030A000806404F132045FEA915C3FF4DCAE4FF0DF
:1030B00003025FEADC0C18BF03325FEADC0C18BFC6
:1030C000033202EBDC02C2F1200300FA03FC20FA17
:1030D00002F001FA03FE40EA0E0021FA02F1144464
:1030E000C1E600BF70B54FF0FF0C4CF4E06C1CEA79
:1030F00011541DBF1CEA135594EA0C0F95EA0C0FEE
:1031000000F0DEF82C4481EA030621EA4C5123EA60
:103110004C5350EA013518BF52EA033541F480118F
:1031200043F4801338D0A0FB02CE4FF00005E1FB42
:1031300002E506F00042E0FB03E54FF00006E1FB8C
:1031400003569CF0000F18BF4EF0010EA4F1FF04CF
:10315000B6F5007F64F5407404D25FEA4E0E6D410F
:1031600046EB060642EAC62141EA55514FEAC52020
:1031700040EA5E504FEACE2EB4F1FD0C88BFBCF59C
:10318000E06F1ED8BEF1004F08BF5FEA500E50F14D
:10319000000041EB045170BD06F0004646EA010113
:1031A00040EA020081EA0301B4EB5C04C2BFD4EB45
:1031B0000C0541EA045170BD41F480114FF0000E3E
:1031C000013C00F3AB8014F1360FDEBF002001F0AC
:1031D000004170BDC4F10004203C35DA0C341BDC26
:1031E00004F11404C4F1200500FA05F320FA04F0F8
:1031F00001FA05F240EA020001F0004221F000412C
:1032000010EBD37021FA04F642EB06015EEA430E9E
:1032100008BF20EAD37070BDC4F10C04C4F12005CE
:1032200000FA04F320FA05F001FA04F240EA020081
:1032300001F0004110EBD37041F100015EEA430E52
:1032400008BF20EAD37070BDC4F1200500FA05F272
:103250004EEA020E20FA04F301FA05F243EA0203F1
:1032600021FA04F001F0004121FA04F220EA020000
:1032700000EBD3705EEA430E08BF20EAD37070BD46
:1032800094F0000F0FD101F00046400041EB010126
:1032900011F4801F08BF013CF7D041EA060195F008
:1032A000000F18BF704703F00046520043EB0303C2
:1032B00013F4801F08BF013DF7D043EA06037047AF
:1032C00094EA0C0F0CEA135518BF95EA0C0F0CD0BA
:1032D00050EA410618BF52EA4306D1D181EA030100
:1032E00001F000414FF0000070BD50EA410606BFFA
:1032F0001046194652EA430619D094EA0C0F02D13F
:1033000050EA013613D195EA0C0F05D152EA033683
:103310001CBF104619460AD181EA030101F00041A1
:1033200041F0FE4141F470014FF0000070BD41F0EA
:10333000FE4141F4780170BD70B54FF0FF0C4CF4C4
:10334000E06C1CEA11541DBF1CEA135594EA0C0FE3
:1033500095EA0C0F00F0A7F8A4EB050481EA030E30
:1033600052EA03354FEA013100F088804FEA033317
:103370004FF0805545EA131343EA12634FEA0222E5
:1033800045EA111545EA10654FEA00260EF00041A6
:103390009D4208BF964244F1FD0404F5407402D2F8
:1033A0005B084FEA3202B61A65EB03055B084FEA89
:1033B00032024FF480104FF4002CB6EB020E75EB86
:1033C000030E22BFB61A754640EA0C005B084FEAAE
:1033D0003202B6EB020E75EB030E22BFB61A75462B
:1033E00040EA5C005B084FEA3202B6EB020E75EB76
:1033F000030E22BFB61A754640EA9C005B084FEAEE
:103400003202B6EB020E75EB030E22BFB61A7546FA
:1034100040EADC0055EA060E18D04FEA051545EAE9
:1034200016754FEA06164FEAC30343EA52734FEA92
:10343000C2025FEA1C1CC0D111F4801F0BD141EA0B
:1034400000014FF000004FF0004CB6E711F4801F70
:1034500004BF01430020B4F1FD0C88BFBCF5E06F50
:103460003FF6AFAEB5EB030C04BFB6EB020C5FEA60
:10347000500C50F1000041EB045170BD0EF0004EB5
:103480004EEA113114EB5C04C2BFD4EB0C0541EAE7
:10349000045170BD41F480114FF0000E013C90E6E4
:1034A00045EA060E8DE60CEA135594EA0C0F08BFA8
:1034B00095EA0C0F3FF43BAF94EA0C0F0AD150EAA7
:1034C00001347FF434AF95EA0C0F7FF425AF10463A
:1034D00019462CE795EA0C0F06D152EA03353FF462
:1034E000FDAE1046194622E750EA410618BF52EADF
:1034F00043067FF4C5AE50EA41047FF40DAF52EAB3
:1035000043057FF4EBAE12E74FEA410212F50012D9
:1035100015D211D56FF47873B3EB625212D94FEA1A
:10352000C12343F0004343EA505311F0004F23FA04
:1035300002F018BF404270474FF00000704750EA59
:10354000013005D111F0004008BF6FF00040704716
:103550004FF00000704700BF80F0004002E000BF65
:1035600081F0004142001FBF5FEA410392EA030F6E
:103570007FEA226C7FEA236C6AD04FEA1262D2EBB8
:103580001363C1BFD218414048404140B8BF5B42BD
:10359000192B88BF704710F0004F40F4000020F056
:1035A0007F4018BF404211F0004F41F4000121F06C
:1035B0007F4118BF494292EA030F3FD0A2F10102B6
:1035C00041FA03FC10EB0C00C3F1200301FA03F1F4
:1035D00000F0004302D5494260EB4000B0F5000F17
:1035E00013D3B0F1807F06D340084FEA310102F1D6
:1035F0000102FE2A51D2B1F1004F40EBC25008BF88
:1036000020F0010040EA03007047490040EB000051
:1036100010F4000FA2F10102EDD1B0FA80FCACF180
:10362000080CB2EB0C0200FA0CF0AABF00EBC2507F
:1036300052421843BCBFD0401843704792F0000F6D
:1036400081F4000106BF80F400000132013BB5E7C0
:103650004FEA41037FEA226C18BF7FEA236C21D036
:1036600092EA030F04D092F0000F08BF084670479B
:1036700090EA010F1CBF0020704712F07F4F04D169
:10368000400028BF40F00040704712F100723CBF7C
:1036900000F50000704700F0004343F0FE4040F4A6
:1036A000000070477FEA226216BF08467FEA236364
:1036B0000146420206BF5FEA412390EA010F40F44F
:1036C000800070474FF0000304E000BF10F000439B
:1036D00048BF40425FEA000C08BF704743F0964382
:1036E00001464FF000001CE050EA010208BF70479D
:1036F0004FF000030AE000BF50EA010208BF704724
:1037000011F0004302D5404261EB41015FEA010C38
:1037100002BF84460146002043F0B64308BFA3F130
:103720008053A3F50003BCFA8CF2083AA3EBC25312
:1037300010DB01FA02FC634400FA02FCC2F1200231
:10374000BCF1004F20FA02F243EB020008BF20F068
:103750000100704702F1200201FA02FCC2F12002CE
:1037600050EA4C0021FA02F243EB020008BF20EAC3
:10377000DC7070474FF0FF0C1CEAD0521EBF1CEAF1
:10378000D15392EA0C0F93EA0C0F6FD01A4480EADF
:10379000010C400218BF5FEA41211ED04FF00063C8
:1037A00043EA501043EA5111A0FB01310CF00040F4
:1037B000B1F5000F3EBF490041EAD3715B0040EA1A
:1037C000010062F17F02FD2A1DD8B3F1004F40EBEA
:1037D000C25008BF20F00100704790F0000F0CF0BD
:1037E000004C08BF49024CEA502040EA51207F3A81
:1037F000C2BFD2F1FF0340EAC250704740F400005C
:103800004FF00003013A5DDC12F1190FDCBF00F04C
:1038100000407047C2F10002410021FA02F1C2F1FA
:10382000200200FA02FC5FEA310040F1000053EA96
:103830004C0308BF20EADC70704792F0000F00F0E4
:10384000004C02BF400010F4000F013AF9D040EAEA
:103850000C0093F0000F01F0004C02BF490011F47E
:10386000000F013BF9D041EA0C018FE70CEAD1537C
:1038700092EA0C0F18BF93EA0C0F0AD030F0004CFC
:1038800018BF31F0004CD8D180EA010000F00040B0
:10389000704790F0000F17BF90F0004F084691F06E
:1038A000000F91F0004F14D092EA0C0F01D14202A8
:1038B0000FD193EA0C0F03D14B0218BF084608D171
:1038C00080EA010000F0004040F0FE4040F40000BB
:1038D000704740F0FE4040F4400070474FF0FF0C4E
:1038E0001CEAD0521EBF1CEAD15392EA0C0F93EA95
:1038F0000C0F69D0A2EB030280EA010C49024FEAE7
:10390000402037D04FF0805343EA111143EA10139F
:103910000CF000408B4238BF5B0042F17D024FF457
:10392000000C8B4224BF5B1A40EA0C00B3EB510F32
:1039300024BFA3EB510340EA5C00B3EB910F24BF1B
:10394000A3EB910340EA9C00B3EBD10F24BFA3EBA0
:10395000D10340EADC001B0118BF5FEA1C1CE0D168
:10396000FD2A3FF650AF8B4240EBC25008BF20F01B
:10397000010070470CF0004C4CEA50207F32C2BF6F
:10398000D2F1FF0340EAC250704740F400004FF00C
:103990000003013A37E792F0000F00F0004C02BF3D
:1039A000400010F4000F013AF9D040EA0C0093F007
:1039B000000F01F0004C02BF490011F4000F013B61
:1039C000F9D041EA0C0195E70CEAD15392EA0C0FC9
:1039D00008D142027FF47DAF93EA0C0F7FF470AF01
:1039E000084676E793EA0C0F04D14B023FF44CAF44
:1039F00008466EE730F0004C18BF31F0004CCAD1D9
:103A000030F000427FF45CAF31F000437FF43CAF14
:103A10005FE700BF4FEA4002B2F1FE4F0FD34FF015
:103A20009E03B3EB12620DD94FEA002343F000432B
:103A300010F0004F23FA02F018BF404270474FF0D9
:103A40000000704712F1610F01D1420205D110F060
:103A5000004008BF6FF0004070474FF00000704713
:103A600042000ED2B2F1FE4F0BD34FF09E03B3EBE8
:103A7000126209D44FEA002343F0004323FA02F014
:103A800070474FF00000704712F1610F01D1420200
:103A900002D14FF0FF3070474FF00000704700BF79
:103AA000014B1868704700BF588CFF1F70B50F4E50
:103AB0000F4D761BB61018BF002405D0013455F801
:103AC000043B9847A642F9D10A4E0B4D761B00F0F5
:103AD0001BFEB61018BF002406D0013455F8043B75
:103AE0009847A642F9D170BD70BD00BF14470000D1
:103AF000144700002447000014470000024B014611
:103B0000186800F003B800BF588CFF1F2DE9F04F74
:103B100001F10B05162D83B0064640F29F8035F06B
:103B2000070500F1BF80A94200F2BC8000F0F4FA62
:103B3000B5F5FC7FC0F09C826B0A00F0BA80042BC4
:103B400000F28381A80900F1390E4FEA4E033830A4
:103B5000C44F07EB8303A3F108015C68A14207D1BE
:103B6000ACE0002A80F2AC80E468A14200F0A680BC
:103B7000636823F003035A1B0F2AF2DDB9493C693D
:103B800001F1080E744500F0B381636823F003036C
:103B90005A1B0F2A00F39981002AC1F814E0C1F8DA
:103BA00010E080F29E80B3F5007F80F06781DB0833
:103BB00003F1010C01229B1002FA03F34A6851F849
:103BC0003C80C4F8088001EBCC091A43A9F1080332
:103BD000E3604A6041F83C40C8F80C40831001247F
:103BE0009C40944200F28A80144206D120F00300E7
:103BF0006400144200F10400FAD007EBC009CC467F
:103C00008046DCF80C108C4507D173E1002A80F265
:103C10008181C9688C4500F06D814B6823F00303F6
:103C20005A1B0F2AF2DD0C46D1F80CC054F8088F4D
:103C30004B1945F001054D6042F00101C8F80CC078
:103C40003046CCF808807B613B61C3F80CE0C3F8D8
:103C500008E059609A5000F061FA1FE0102921D85D
:103C600000F05AFA1025062302207E4F07EB83034B
:103C7000A3F108025C68944200F045816368E16842
:103C8000A56823F00303234430465A68E96042F0F4
:103C900001028D605A6000F041FA0834204603B0FA
:103CA000BDE8F08F00240C232046336003B0BDE84C
:103CB000F08F80234FF0400E3F2049E770465DE7CC
:103CC0002344E1685A68A56842F00102E960304681
:103CD0008D605A6000F022FA0834204603B0BDE837
:103CE000F08F234430465A6842F001025A6000F0D7
:103CF00015FA0834204603B0BDE8F08FBC6863684D
:103D000023F00308A84504D3C5EB08030F2B00F3E9
:103D10008C80554BDFF860911A68D9F80030013378
:103D20002A4404EB080A00F0608102F580520F3249
:103D300022F47F6222F00F0211463046019200F019
:103D4000EFF9B0F1FF3F8346019A00F058818245B8
:103D500000F2FC80454B1968DA451144196000F007
:103D60005381D9F80000DFF810E101301BBFCAEB26
:103D70000B0A5144CEF800B019601BF0070100F0A7
:103D80001781C1F10800C1F58051834408315A44BC
:103D9000C2F30B02C2EB010949463046019300F021
:103DA000BFF9431C019B00F03F81CBEB00024A446A
:103DB00042F001021968C7F808B04944BC42CBF888
:103DC00004201960DFF8A49016D0B8F10F0F40F26C
:103DD000FD806268A8F10C0323F00703E01802F0ED
:103DE00001024FF0050E1A430F2B6260C0F804E089
:103DF000C0F808E000F21C811D4BBC681A689142B3
:103E000088BF19601B4B1A689142626888BF1960AD
:103E100022F003029542A2EB050301D80F2B04DC2C
:103E2000304600F07BF9002438E7621943F00103C3
:103E300045F0010565603046BA60536000F06EF9E8
:103E40000834204603B0BDE8F08F142B71D9542BF1
:103E500000F2A480280B00F16F0E4FEA4E036E3083
:103E600076E600BF5C8CFF1FA893FF1FAC93FF1F7B
:103E7000A493FF1FA093FF1F6890FF1F5A0A042AF4
:103E80005ED9142A00F2B38002F15C0149005B3272
:103E900007EB810C57F82110DFF8DC81ACF1080C3E
:103EA0008C4500F088804A6822F00302934202D2D7
:103EB00089688C45F7D1D1F80CC07A68C4F80CC079
:103EC000A160CCF80840CC6088E6631942F0010795
:103ED00045F00105656030464B610B61C3F80CE0AD
:103EE000C3F808E05F609A50083400F017F9D5E68F
:103EF0004A6873E608F1010818F0030F0CF1080C8A
:103F00007FF47FAE30E0DC68A34208BF02303FF4AC
:103F100035AEB3E60B440C465A68C96854F8085FDE
:103F200042F001025A603046E9608D6000F0F6F818
:103F3000B4E603F15C0E03F15B004FEA4E0307E6C3
:103F40009A0902F1390149003832A1E7BC424A4BD3
:103F50003FF400AF9C68626822F003025AE759F808
:103F60000839994540F0828010F0030F00F1FF30CE
:103F7000F5D17B6823EA04037B6064009C423FF632
:103F8000BDAE002C3FF4BAAE1C4240467FF435AEC5
:103F900064001C4200F10400FAD02EE6B3F5AA7FBB
:103FA00018D8E80B00F1780E4FEA4E037730CFE5D2
:103FB0004FF48051EBE60121D8F80430921001FA59
:103FC00002F21A43C8F80420614677E70123CBF8D0
:103FD000043025E740F25452934220D8A80C00F157
:103FE0007D0E4FEA4E037C30B2E51032A4E6542A2F
:103FF00026D81A0B02F16F0149006E3248E7BC68FF
:10400000626822F0030205E7CAF30B0000287FF480
:10401000A8AE4244BB6842F001025A60ECE6FE23BF
:104020004FF07F0E7E2093E501224FF00009C1E69C
:1040300004F10801304600F0F7F8D9F80010DBE68B
:10404000B2F5AA7F05D8DA0B02F178014900773280
:104050001EE740F254518A4205D89A0C02F17D01C4
:1040600049007C3214E7FE217E2211E77B6884E759
:10407000E808431C5B00F8E55C8CFF1F70B4840704
:1040800046D0541E002A41D0CDB2034602E0621E43
:10409000E4B3144603F8015B9A07F8D1032C2ED938
:1040A000CDB245EA05250F2C45EA054519D903F19E
:1040B00010022646103E0F2E42F8105C42F80C5CAF
:1040C00042F8085C42F8045C02F11002F2D8A4F154
:1040D000100222F00F0204F00F041032032C1344DC
:1040E0000DD91E462246043A032A46F8045BFAD844
:1040F000221F22F003020432134404F003042CB103
:10410000C9B21C4403F8011BA342FBD170BC704729
:1041100014460346C2E700BF704700BF704700BFA8
:1041200038B5074C0023054608462360FDF794FA8E
:10413000431C00D038BD2368002BFBD02B6038BD5A
:10414000E893FF1F024B13B1024800F005B8704717
:104150000000000065410000002301461A46184691
:1041600000F04AB938B5074D074C2C1BA41005D0F8
:10417000013C55F8043D9847002CF9D1BDE8384082
:1041800000F0D0BA0000000000000000F8B5234F96
:104190000C460646FFF7C0FFBB685D6825F00305C7
:1041A000291B01F6EF7121F47F6121F00F01A1F5C8
:1041B0008054B4F5805F07DB00213046FFF7B0FF85
:1041C000BB682B44984204D03046FFF7A7FF00207D
:1041D000F8BD61423046FFF7A3FF01300DD0104B10
:1041E000BA6819682D1B45F001053046091B55605A
:1041F0001960FFF793FF0120F8BD00213046FFF75B
:104200008FFFBA68831A0F2BDEDD064C0449246841
:1042100043F00103001B53600860D5E75C8CFF1F6F
:10422000AC93FF1F6890FF1F002945D02DE9F04196
:104230000D468046FFF770FF55F8047C6A4927F069
:104240000103A5F10804E2188E685068B24220F01C
:10425000030062D0FE0750600BD455F8087CE41BC5
:1042600001F1080EA56875453B446FD0E768EF6023
:10427000BD6015186D68ED0742D543F0010262601C
:10428000E350B3F5007F18D2DB085A1C4D6851F893
:104290003270A76001209B1000FA03F301EBC2000B
:1042A0001D430838E0604D6041F83240FC604046F4
:1042B000BDE8F041FFF732BF70475A0A042A53D8CD
:1042C0009A0902F139077F0002F1380501EB8700F6
:1042D00051F827204449083890424DD0516821F0C8
:1042E00003018B4202D292689042F7D1D068E0601D
:1042F000A2608460D4604046BDE8F041FFF70EBF85
:1043000095683A4FBD4203443FD0D068E86043F01F
:10431000010285606260E350B3E7FF07034407D4FE
:1043200055F8082CA41A1344A068E268C260906093
:104330002F4A126843F00100934260608C60B6D34C
:104340002C4B40461968FFF721FFB0E71118496868
:10435000C90744D49168D268CA60034443F001009D
:1043600091606060E350A2E7142A17D802F15C075D
:104370007F0002F15B05A9E7AA104B68012505FA49
:1043800002F213434B600246B1E743F001024C6175
:104390000C61E560A5606260E35088E7542A06D8A6
:1043A0001A0B02F16F077F0002F16E058EE7B2F57E
:1043B000AA7F06D8DA0B02F178077F0002F17705B1
:1043C00084E740F25450824206D89A0C02F17D07ED
:1043D0007F0002F17C0579E7FE277E2576E743F032
:1043E00001026260E35062E75C8CFF1F648CFF1F78
:1043F0006490FF1FA893FF1F2DE9F047254C256807
:10440000D5F848410646884692469946C4B3606846
:104410001F2817DC431C76B104EB80050122C5F888
:1044200088A0D4F8881182401143022EC4F8881164
:10443000C5F808911ED00230636044F82080002047
:10444000BDE8F087144B03B34FF4C870FFF756FB79
:104450000446D0B1D5F84831002780E88800C5F877
:10446000484138460123C4F88871C4F88C71002E85
:10447000E1D0D1E7D4F88C110A43C4F88C21DAE7F3
:1044800005F5A674C5F84841C1E74FF0FF30BDE817
:10449000F08700BF04470000FD3A000053746172CA
:1044A00074696E672075702100000000496E7665A2
:1044B000727465722054656D70203A20000000000F
:1044C000CB9A43004D6F746F722054656D70203A23
:1044D00020000000426174746572792054656D702B
:1044E000203A20004D6F746F722053706565642010
:1044F0003A20000072706D005061636B204375724A
:1045000072656E743A200000410000005061636BD8
:1045100020566F6C746167653A20000056000000F9
:104520004261747465727920534F43203A20000031
:104530002500FFFF41626F727420696E2043414E77
:1045400020626567696E2E20436F756C646E2774F8
:104550002066696E642061207375697461626C65A0
:10456000206261756420636F6E66696721000000D8
:104570004008FE4340A004404408FE4344A00440D9
:104580000018FE4300C004403000FE433090044059
:104590003400FE43349004401C18FE431CC0044009
:1045A0001018FE4310C004400818FE4308C0044021
:1045B0000C18FE430CC004400C10FE430CB0044029
:1045C0001010FE4310B004401810FE4318B0044011
:1045D0001C10FE431CB004401410FE4314B00440F1
:1045E0000418FE4304C004400010FE4300B0044021
:1045F0000008FE4300A004400408FE4304A0044059
:104600000C08FE430CA004400808FE4308A0044028
:104610001418FE4314C004401818FE4318C0044088
:104620000410FE4304B004400810FE4308B00440E8
:104630001400FE43149004404C08FE434CA0044078
:104640000420FE4304D004402410FE4324B0044060
:104650002010FE4320B004402810FE4328B0044040
:104660002C10FE432CB004400020FE4300D0044038
:104670004808FE4348A004401000FE431090044048
:104680000D0AFFFF0000000000000000CD2A00001E
:10469000C52A0000C12A0000BD2A0000B92A000076
:1046A000B52A0000B12A0000AD2A00000015191536
:1046B000000100008887FF1F1200000000020000B8
:1046C000B487FF1F43000000000300001088FF1F95
:1046D00000000000010309049C87FF1F0000000088
:1046E00002030904F887FF1F000000000303090408
:1046F0001488FF1F00000000000000000000000000
:10470000000000003088FF1FF8B500BFF8BC08BCEF
:104710009E4670474541000035040000890B0000AB
:04472000ED15000093
:04472400F8B500BF25
:10472800810100000F0000000D00000000000101E1
:104738000001010101020101020201020301020359
:10474800020204020205020205030206030207032D
:104758000207040307040307050407050407060501
:10476800070606070606070707070700EC93FF1F5B
:10477800FFFFFFFF8C46000000000000E803000078
:1047880000000000010A04001201100102000040AC
:10479800C0168304750201020301000018035400C7
:1047A800650065006E00730079006400750069009B
:1047B8006E006F0009024300020100C032090400C4
:1047C8000001020201000524001001052401010175
:1047D8000424020605240600010705820310004090
:1047E80009040100020A0000000705030240000056
:1047F80007058402400000001603550053004200DC
:104808002000530065007200690061006C00000020
:10481800040309040C03000000000000000000006D
:10482800000000000000000000000100000000007F
:10483800000000001C8BFF1F848BFF1FEC8BFF1FE9
:104848000000000000000000000000000000000060
:104858000000000000000000000000000000000050
:104868000000000000000000000000000000000040
:104878000000000000000000000000000000000030
:104888000000000000000000000000000000000020
:104898000000000000000000000000000000000010
:1048A8000000000000000000000000000000000000
:1048B80000000000000000000000000000000000F0
:1048C80000000000000000000000000000000000E0
:1048D80000000000000000000100000000000000CF
:1048E8000E33CDAB34126DE6ECDE05000B00000094
:1048F80000000000000000000000000000000000B0
:10490800000000000000000000000000000000009F
:10491800000000000000000000000000000000008F
:10492800000000000000000000000000000000007F
:104C580000000000000000003088FF1F0000000076
:104C6800000000005C8CFF1F5C8CFF1F648CFF1F22
:104C7800648CFF1F6C8CFF1F6C8CFF1F748CFF1FD4
:104C8800748CFF1F7C8CFF1F7C8CFF1F848CFF1F84
:104C9800848CFF1F8C8CFF1F8C8CFF1F948CFF1F34
:104CA800948CFF1F9C8CFF1F9C8CFF1FA48CFF1FE4
:104CB800A48CFF1FAC8CFF1FAC8CFF1FB48CFF1F94
:104CC800B48CFF1FBC8CFF1FBC8CFF1FC48CFF1F44
:104CD800C48CFF1FCC8CFF1FCC8CFF1FD48CFF1FF4
:104CE800D48CFF1FDC8CFF1FDC8CFF1FE48CFF1FA4
:104CF800E48CFF1FEC8CFF1FEC8CFF1FF48CFF1F54
:104D0800F48CFF1FFC8CFF1FFC8CFF1F048DFF1F02
:104D1800048DFF1F0C8DFF1F0C8DFF1F148DFF1FAF
:104D2800148DFF1F1C8DFF1F1C8DFF1F248DFF1F5F
:104D3800248DFF1F2C8DFF1F2C8DFF1F348DFF1F0F
:104D4800348DFF1F3C8DFF1F3C8DFF1F448DFF1FBF
:104D5800448DFF1F4C8DFF1F4C8DFF1F548DFF1F6F
:104D6800548DFF1F5C8DFF1F5C8DFF1F648DFF1F1F
:104D7800648DFF1F6C8DFF1F6C8DFF1F748DFF1FCF
:104D8800748DFF1F7C8DFF1F7C8DFF1F848DFF1F7F
:104D9800848DFF1F8C8DFF1F8C8DFF1F948DFF1F2F
:104DA800948DFF1F9C8DFF1F9C8DFF1FA48DFF1FDF
:104DB800A48DFF1FAC8DFF1FAC8DFF1FB48DFF1F8F
:104DC800B48DFF1FBC8DFF1FBC8DFF1FC48DFF1F3F
:104DD800C48DFF1FCC8DFF1FCC8DFF1FD48DFF1FEF
:104DE800D48DFF1FDC8DFF1FDC8DFF1FE48DFF1F9F
:104DF800E48DFF1FEC8DFF1FEC8DFF1FF48DFF1F4F
:104E0800F48DFF1FFC8DFF1FFC8DFF1F048EFF1FFD
:104E1800048EFF1F0C8EFF1F0C8EFF1F148EFF1FAA
:104E2800148EFF1F1C8EFF1F1C8EFF1F248EFF1F5A
:104E3800248EFF1F2C8EFF1F2C8EFF1F348EFF1F0A
:104E4800348EFF1F3C8EFF1F3C8EFF1F448EFF1FBA
:104E5800448EFF1F4C8EFF1F4C8EFF1F548EFF1F6A
:104E6800548EFF1F5C8EFF1F5C8EFF1F648EFF1F1A
:104E7800648EFF1F6C8EFF1F6C8EFF1F748EFF1FCA
:104E8800748EFF1F7C8EFF1F7C8EFF1F848EFF1F7A
:104E9800848EFF1F8C8EFF1F8C8EFF1F948EFF1F2A
:104EA800948EFF1F9C8EFF1F9C8EFF1FA48EFF1FDA
:104EB800A48EFF1FAC8EFF1FAC8EFF1FB48EFF1F8A
:104EC800B48EFF1FBC8EFF1FBC8EFF1FC48EFF1F3A
:104ED800C48EFF1FCC8EFF1FCC8EFF1FD48EFF1FEA
:104EE800D48EFF1FDC8EFF1FDC8EFF1FE48EFF1F9A
:104EF800E48EFF1FEC8EFF1FEC8EFF1FF48EFF1F4A
:104F0800F48EFF1FFC8EFF1FFC8EFF1F048FFF1FF8
:104F1800048FFF1F0C8FFF1F0C8FFF1F148FFF1FA5
:104F2800148FFF1F1C8FFF1F1C8FFF1F248FFF1F55
:104F3800248FFF1F2C8FFF1F2C8FFF1F348FFF1F05
:104F4800348FFF1F3C8FFF1F3C8FFF1F448FFF1FB5
:104F5800448FFF1F4C8FFF1F4C8FFF1F548FFF1F65
:104F6800548FFF1F5C8FFF1F5C8FFF1F648FFF1F15
:104F7800648FFF1F6C8FFF1F6C8FFF1F748FFF1FC5
:104F8800748FFF1F7C8FFF1F7C8FFF1F848FFF1F75
:104F9800848FFF1F8C8FFF1F8C8FFF1F948FFF1F25
:104FA800948FFF1F9C8FFF1F9C8FFF1FA48FFF1FD5
:104FB800A48FFF1FAC8FFF1FAC8FFF1FB48FFF1F85
:104FC800B48FFF1FBC8FFF1FBC8FFF1FC48FFF1F35
:104FD800C48FFF1FCC8FFF1FCC8FFF1FD48FFF1FE5
:104FE800D48FFF1FDC8FFF1FDC8FFF1FE48FFF1F95
:104FF800E48FFF1FEC8FFF1FEC8FFF1FF48FFF1F45
:10500800F48FFF1FFC8FFF1FFC8FFF1F0490FF1FF3
:105018000490FF1F0C90FF1F0C90FF1F1490FF1FA0
:105028001490FF1F1C90FF1F1C90FF1F2490FF1F50
:105038002490FF1F2C90FF1F2C90FF1F3490FF1F00
:105048003490FF1F3C90FF1F3C90FF1F4490FF1FB0
:105058004490FF1F4C90FF1F4C90FF1F5490FF1F60
:0C5068005490FF1F00000200FFFFFFFF3C
:00000001FF
